:020000040800F2
:100000000000022001140008151300081B1300084B
:1000100021130008271300082D130008000000001A
:100020000000000000000000000000003313000882
:1000300041130008000000004F1300085D13000882
:1000400051140008511400085114000851140008FC
:1000500051140008511400085114000851140008EC
:1000600051140008511400085114000851140008DC
:100070008D13000851140008511400085114000891
:10008000A11300085114000851140008511400086D
:1000900051140008511400085114000851140008AC
:1000A000511400085114000851140008511400089C
:1000B000511400085114000851140008511400088C
:1000C000511400085114000851140008511400087C
:1000D0005114000851140008B5130008C913000892
:1000E000511400085114000851140008511400085C
:1000F000511400085114000851140008511400084C
:10010000511400085114000851140008511400083B
:10011000511400085114000851140008511400082B
:10012000511400085114000851140008511400081B
:10013000511400085114000851140008511400080B
:1001400051140008511400085114000851140008FB
:1001500051140008511400085114000851140008EB
:1001600051140008511400085114000851140008DB
:100170005114000851140008511400080000000038
:0801800051140008511400089D
:1001880010B5054C237833B9044B13B10448AFF3C9
:1001980000800123237010BD0C0000200000000027
:1001A800CC42000808B5034B1BB103490348AFF321
:1001B800008008BD0000000010000020CC420008AC
:1001C80053B94AB9002908BF00281CBF4FF0FF31B6
:1001D8004FF0FF3000F06EB9ADF1080C6DE904CEB8
:1001E80000F006F8DDF804E0DDE9022304B070470A
:1001F8002DE9F047089D04468C46002B40F083808B
:100208008A42174647D9B2FA82F242B1C2F12000B7
:1002180024FA00F09140974040EA010C94404FEADC
:100228001748230CBCFBF8F61FFA87FE08FB16C11B
:1002380043EA014306FB0EF1994209D9FB1806F17E
:10024800FF3080F01981994240F21681023E3B440A
:100258005B1AA4B2B3FBF8F008FB103344EA03447A
:1002680000FB0EFEA64509D93C1900F1FF3380F0CA
:100278000581A64540F2028102383C4440EA064026
:10028800A4EB0E0400261DB1D4400023C5E90043A9
:100298003146BDE8F08702B9FFDEB2FA82F2002AE1
:1002A80050D1CB1B4FEA174E1FFA87F80126B3FB34
:1002B800FEFC210C0EFB1C3341EA034108FB0CF346
:1002C8008B4207D979180CF1FF3002D28B4200F229
:1002D800E9808446C91AA3B2B1FBFEF00EFB1011E7
:1002E80043EA014408FB00F8A04507D93C1900F18E
:1002F800FF3302D2A04500F2D9801846A4EB0804C7
:1003080040EA0C40BFE78B4209D9002D00F0B180CC
:100318000026C5E9000130463146BDE8F087B3FA4A
:1003280083F6002E4AD18B4202D3824200F2B88073
:10033800841A61EB030101208C46002DA8D0C5E981
:10034800004CA5E7C2F1200320FA03F6974001FA12
:1003580002F04FEA174ED9403043030CB1FBFEF6CA
:100368001FFA87F80EFB161143EA014306FB08F152
:10037800994204FA02F409D9FB1806F1FF3C80F00F
:100388008D80994240F28A80023E3B445B1A81B2DA
:10039800B3FBFEF00EFB103341EA034100FB08F308
:1003A8008B4207D9791800F1FF3C73D28B4271D97F
:1003B80002383944CB1A40EA064678E7C6F1200CE1
:1003C80003FA06F422FA0CF31C4320FA0CF701FA9C
:1003D80006F34FEA144E21FA0CF11F433B0CB1FB14
:1003E800FEF91FFA84F80EFB191143EA014109FBD3
:1003F80008FA8A4502FA06F200FA06F308D96118E3
:1004080009F1FF3048D28A4546D9A9F102092144A9
:10041800A1EB0A01BFB2B1FBFEF00EFB101147EAD7
:10042800014700FB08F8B84507D9E71900F1FF3183
:100438002ED2B8452CD90238274440EA0940A7EB08
:100448000807A0FB02894F45C64649461AD317D06C
:100458005DB1B3EB0E0267EB010707FA0CFCF24043
:100468004CEA0202F740C5E9002700263146BDE8FC
:10047800F0872E4628460BE70646E9E61846FDE6CD
:100488004345E5D2B8EB020E69EB04010138DFE71A
:100498000846D2E760468DE78146B9E7664675E7C4
:1004A80030464AE7ACF1020C394413E702383C44C1
:1004B80024E700BF704700BF80B582B000AF786006
:1004C8007B68174A934227D1164B1B88B3F5966F62
:1004D80017D2154B1B7883F00103DBB2002B10D029
:1004E800124B00221A60124B01221A700D4B1B8806
:1004F8005A1C91B20B4A11801A460E4B19780E4BB2
:10050800995401220B49064803F02DF80346002BA5
:1005180002D00A4B01221A7000BF0837BD4680BDC1
:10052800240B0020DC04002028000020E004002028
:10053800DE040020E80400202C000020E404002051
:1005480080B400AF064B00221A70064B00221A60D6
:10055800054B00221A8000BFBD465DF8047B70473A
:10056800DE040020E0040020DC04002080B400AF9A
:10057800054B1B680E2B01D9012300E00023184608
:10058800BD465DF8047B7047E004002080B582B06A
:1005980000AF01221E491F4802F0E5FF0346002B69
:1005A80002D01D4B01221A7000F0EAFF78601A4B46
:1005B8001B78002B0AD001221549164802F0D3FFF8
:1005C8000346002B02D1144B00221A7000F0D8FF0A
:1005D80002467B68D31AB3F5FA6F08D90F4B1B781C
:1005E80083F00103DBB2002B01D000F0D5FBFFF74D
:1005F800BDFF0346002BDAD0094B01221A7000F028
:1006080011F8FFF79DFF00F0BBFF7860CFE700BF50
:10061800E8040020240B0020E4040020E504002066
:100628002800002080B596B000AF4F237B650023DB
:100638003B650023FB64002387F84B3000237B6471
:1006480032E0494A7B6C13441B78AB2B29D1474BCA
:100658001B881A467B6CD31A022B22DD7B6C013374
:10066800414AD35C9BB21B02FB877B6C02333E4A38
:10067800D35C9AB2FB8F1344FB873C4B1B88FA8FE1
:100688009A420ED8FB8F013B374AD35CCD2B08D159
:100698007B6C3B65FB8F013BFB64012387F84B3088
:1006A80008E07B6C01337B64304B1B881A467B6CFB
:1006B8009342C6DB97F84B3083F00103DBB2002B83
:1006C80006D03B460621184600F0EAF90623DFE18A
:1006D800254A3B6D13441B78AB2B05D1224AFB6C92
:1006E80013441B78CD2B09D0214B00221A703B46AE
:1006F8000421184600F0D4F90423C9E13B6D013305
:10070800194AD35C9BB21B02FB873B6D0233164A26
:10071800D35C9AB2FB8F1344FB87FB6C013B124AF4
:10072800D35CBB633B6D3B640AE00F4A3B6C1344EC
:100738001B781A467B6D53407B653B6C01333B64E9
:10074800FB6C013B3A6C9A42EFDB7A6DBB6B9A42C9
:1007580010D0074B00221A703B460421184600F0BF
:100768009FF9042394E100BF2C000020DC04002042
:10077800280000203B6D9BB20533FB87FB8F5A1C7A
:10078800FA871A469A4B9B5C7B637B6B1B027B63E5
:10079800FB8F5A1CFA871A46954B9B5C1A467B6B53
:1007A80013447B637B6B1B027B63FB8F5A1CFA87AA
:1007B8001A468F4B9B5C1A467B6B13447B637B6B9F
:1007C8001B027B63FB8F5A1CFA871A46884B9B5C7B
:1007D8001A467B6B13447B637B6BFB61FB8F5A1C54
:1007E800FA871A46824B9B5C7B637B6B1B027B639D
:1007F800FB8F5A1CFA871A467D4B9B5C1A467B6B0B
:1008080013447B637B6B1B027B63FB8F5A1CFA8749
:100818001A46774B9B5C1A467B6B13447B637B6B56
:100828001B027B63FB8F5A1CFA871A46704B9B5C32
:100838001A467B6B13447B637B6B3B62FB8F5A1CB2
:10084800FA871A466A4B9B5C7B637B6B1B027B6354
:10085800FB8F5A1CFA871A46654B9B5C1A467B6BC2
:1008680013447B637B6B1B027B63FB8F5A1CFA87E9
:100878001A465F4B9B5C1A467B6B13447B637B6B0E
:100888001B027B63FB8F5A1CFA871A46584B9B5CEA
:100898001A467B6B13447B637B6B7B62FB8F5A1C12
:1008A800FA871A46524B9B5C7B637B6B1B027B630C
:1008B800FB8F5A1CFA871A464D4B9B5C1A467B6B7A
:1008C80013447B637B6B1B027B63FB8F5A1CFA8789
:1008D8001A46474B9B5C1A467B6B13447B637B6BC6
:1008E8001B027B63FB8F5A1CFA871A46404B9B5CA2
:1008F8001A467B6B13447B63FB8F5A1CFA871A4694
:100908003B4B9B5C7B637B6B1B027B63FB8F5A1CA3
:10091800FA871A46364B9B5C1A467B6B13447B63FB
:100928007B6B1B027B63FB8F5A1CFA871A46304B82
:100938009B5C1A467B6B13447B637B6B1B027B635C
:10094800FB8F5A1CFA871A46294B9B5C1A467B6B0D
:1009580013447B637B6BBB60FB8F5A1CFA871A4678
:10096800234B9B5C7B637B6B1B027B63FB8F5A1C5B
:10097800FA871A461E4B9B5C1A467B6B13447B63B3
:100988007B6B1B027B63FB8F5A1CFA871A46184B3A
:100998009B5C1A467B6B13447B637B6B1B027B63FC
:1009A800FB8F5A1CFA871A46114B9B5C1A467B6BC5
:1009B80013447B637B6BFB60FA68BB68D31ABB612B
:1009C8003B6D1D330A4A1344BB62FB6C9AB23B6D04
:1009D8009BB2D31A9BB21E3B9BB2BB853B6D0333C4
:1009E800034AD35C87F82E3097F82E30B12B01E0FC
:1009F8002C00002002D0D32B34D03DE0FA697B6A6A
:100A08009A4217D13B46184600F0ECF8034687F89F
:100A1800333097F83330002B0CD01F4B00221A705C
:100A280097F833203B461146184600F039F897F8F6
:100A380033302DE03B46184600F006F9034687F8A8
:100A4800333097F83330002B15D0134B00221A702F
:100A580097F833203B461146184600F021F897F8DE
:100A6800333015E00D4B01221A703B460021184621
:100A780000F016F800E000BF074B00221A703B4652
:100A88000021184600F00CF80A2000F085FD00232C
:100A980018465837BD4680BD28000020E5040020D0
:100AA80080B586B000AF78600B46FB70FB78052BED
:100AB8000ED801A252F823F0D90A0008D90A000872
:100AC800D90A0008D90A0008D90A0008D90A000872
:100AD8000023FB814F23FB75FB895A1CFA811A46B8
:100AE8003E4BAB219954FB895A1CFA811A463B4B61
:100AF80000219954FB895A1CFA811A46374B002168
:100B08009954FB895A1CFA811A467B6893F82E106F
:100B1800324B9954FB895A1CFA8119462F4AFB78A3
:100B280053547B685B6A190EFB895A1CFA811A4672
:100B3800C9B22A4B99547B685B6A190CFB895A1C09
:100B4800FA811A46C9B2254B99547B685B6A190A1F
:100B5800FB895A1CFA811A46C9B2204B99547B6802
:100B6800596AFB895A1CFA811A46C9B21B4B995417
:100B7800FB891B0A9BB2DAB2184B5A70FB89DAB2AE
:100B8800164B9A7000233B6109E0144A3B691344F1
:100B98001A78FB7D5340FB753B6901333B61FB8948
:100BA8003A699A42F1DBFB895A1CFA8119460B4AC9
:100BB800FB7D5354FB895A1CFA811A46074BCD21F9
:100BC8009954FA894FF47A730449054802F039FCBC
:100BD80000BF18461837BD4680BD00BFEC04002092
:100BE800240B002080B58AB000AF786000233B61F9
:100BF8007B689B69FB617B689B68BB6102233B62E6
:100C080001F072FA012000F0C7FC07F10C0207F1AD
:100C180010031146184601F0C9FB034687F8273030
:100C2800012000F0B9FC01F081FAFB68B3F1FF3F45
:100C380005D197F82730002B01D1002300E00123CC
:100C480018462837BD4680BD80B586B000AF7860AD
:100C580000237B610023FB720023BB727B685B6A05
:100C68007B61012000F098FC01F03EFA012000F0C1
:100C780093FC00233B612AE07B689A6A3B699B00EE
:100C880013441B681A464FF000037969022001F0EB
:100C9800D7F90346FB720023FB6002E0FB680133CF
:100CA800FB60FB68632BF9DDFB7A002B09D0012080
:100CB80000F072FC01F03AFA012000F06DFC02230A
:100CC8001BE07B6904337B613B6901333B617B68D3
:100CD8009B8D9B089BB21A463B699342CCDB012053
:100CE80000F05AFC01F022FA012000F055FC786867
:100CF80000F008F80346BB72BB7A18461837BD46A1
:100D080080BD000080B487B000AF78600023FB7519
:100D180000233B610EE07B685A6A3B699B001344E1
:100D280019463B699B001B4A13440A681A603B69D1
:100D380001333B617B689B8D9B089BB21A463B69DC
:100D48009342E8D37B6893F82E30B12B1BD1002354
:100D5800FB6011E00F4AFB6813441A787B68996AB4
:100D6800FB680B441B789A4203D00323FB7500BF32
:100D780008E0FB680133FB607B689B8D1A46FB68C3
:100D88009342E7D300BFFB7D18461C37BD465DF88C
:100D9800047B7047EC04002080B584B000AF02F0FB
:100DA80035FA00F075FB124B00221A60104B002236
:100DB8005A600F4B00229A6001237B607B6883F3A3
:100DC800108800BF72B600BF0A4B0B4A9A600B4BE3
:100DD8001B68FB60084B1B68BB60BB6883F3088813
:100DE80000BFFB68984700BF1037BD4680BD00BFF5
:100DF80010E000E000ED00E000800008048000083A
:100E080080B500AF00F022FB00F00EF800F006F904
:100E180000F0DCF800F072F800F084F800F0ACF8AC
:100E2800FFF7B4FBFEE7000080B594B000AF07F110
:100E3800200330220021184603F03CFA07F10C0386
:100E480000221A605A609A60DA601A610023BB6057
:100E5800284B1B6C274A43F080531364254B1B6CAB
:100E680003F08053BB60BB6800237B60224B1B6888
:100E7800214A43F4804313601F4B1B6803F48043EB
:100E88007B607B6801233B624FF480337B620223E3
:100E9800BB634FF48003FB6308233B64A8237B6494
:100EA8000223BB640423FB6407F12003184601F006
:100EB8003BFD0346002B01D000F0E6F80F23FB6052
:100EC80002233B6100237B614FF4A053BB614FF4C5
:100ED8008053FB6107F10C030521184601F09CFFC4
:100EE8000346002B01D000F0CFF800BF5037BD46B5
:100EF80080BD00BF003802400070004080B500AFE0
:100F0800064B074A1A60054800F07BFC0346002B95
:100F180001D000F0B9F800BF80BD00BF680B002009
:100F28000030024080B500AF114B124A1A60104BD6
:100F38004FF4E1325A600E4B00229A600C4B0022AB
:100F4800DA600B4B00221A61094B0C225A61084BDC
:100F580000229A61064B0022DA61054802F024FA61
:100F68000346002B01D000F08FF800BF80BD00BF02
:100F7800700B00200044004080B500AF114B124AAE
:100F88001A60104B4FF4E1325A600E4B00229A60FF
:100F98000C4B0022DA600B4B00221A61094B0C2221
:100FA8005A61084B00229A61064B0022DA61054813
:100FB80002F0FAF90346002B01D000F065F800BFF3
:100FC80080BD00BF240B00200048004080B582B0DF
:100FD80000AF00237B60104B1B6B0F4A43F40013D8
:100FE80013630D4B1B6B03F400137B607B680022BB
:100FF80000210C2000F0CFFB0C2000F0E8FB0022C1
:101008000021102000F0C7FB102000F0E0FB00BF1B
:101018000837BD4680BD00BF0038024080B485B0A7
:1010280000AF0023FB60174B1B6B164A43F080038D
:101038001363144B1B6B03F08003FB60FB680023F6
:10104800BB60104B1B6B0F4A43F0010313630D4B3E
:101058001B6B03F00103BB60BB6800237B60094B7B
:101068001B6B084A43F002031363064B1B6B03F028
:1010780002037B607B6800BF1437BD465DF8047BC4
:10108800704700BF0038024080B400AF72B600BF9E
:10109800FEE7000080B483B000AF00237B60104BF4
:1010A8005B6C0F4A43F4804353640D4B5B6C03F451
:1010B80080437B607B6800233B60094B1B6C084ABC
:1010C80043F080531364064B1B6C03F080533B6062
:1010D8003B6800BF0C37BD465DF8047B704700BF16
:1010E8000038024080B485B000AF78607B681B6828
:1010F8000B4A93420DD10023FB600A4B1B6B094A34
:1011080043F480531363074B1B6B03F48053FB605A
:10111800FB6800BF1437BD465DF8047B704700BF0D
:10112800003002400038024080B58CB000AF7860D3
:1011380007F11C0300221A605A609A60DA601A618B
:101148007B681B68684A934262D10023BB61674B86
:101158001B6C664A43F400331364644B1B6C03F442
:101168000033BB61BB6900237B61604B1B6B5F4A2B
:1011780043F0010313635D4B1B6B03F001037B61B9
:101188007B690C23FB6102233B6200237B62032300
:10119800BB620723FB6207F11C031946544801F0A0
:1011A80027FA544B544A1A60524B4FF000625A6067
:1011B800504B00229A604F4B0022DA604D4B4FF49F
:1011C80080621A614B4B00225A614A4B00229A6195
:1011D800484B0022DA61474B00221A62454B002235
:1011E8005A62444800F02AFB0346002B01D0FFF75F
:1011F8004BFF7B683F4A9A633E4A7B6893630022B1
:101208000021262000F0C7FA262000F0E0FA67E067
:101218007B681B68394A934262D100233B61334B98
:101228001B6C324A43F480231364304B1B6C03F469
:1012380080233B613B690023FB602C4B1B6B2B4AD3
:1012480043F002031363294B1B6B03F00203FB609B
:10125800FB684FF44063FB6102233B6200237B621F
:101268000323BB620723FB6207F11C0319462448CA
:1012780001F0BEF9234B244A1A60224B4FF000625A
:101288005A60204B00229A601E4B0022DA601D4BE8
:101298004FF480621A611B4B00225A61194B0022DD
:1012A8009A61184B0022DA61164B00221A62154B1C
:1012B80000225A62134800F0C1FA0346002B01D0FD
:1012C800FFF7E2FE7B680F4A9A630E4A7B689363D6
:1012D80000220021272000F05EFA272000F077FA8C
:1012E80000BF3037BD4680BD004400400038024092
:1012F80000000240640A0020886002400048004064
:1013080000040240C40A00202860024080B400AFF4
:10131800FEE780B400AFFEE780B400AFFEE780B41C
:1013280000AFFEE780B400AFFEE780B400AF00BFB7
:10133800BD465DF8047B704780B400AF00BFBD4672
:101348005DF8047B704780B400AF00BFBD465DF810
:10135800047B704780B500AF084B1B78002B08D082
:10136800074B1B680F2B04D8054B1B680133044A35
:10137800136000F0F1F800BF80BD00BFDE0400205C
:10138800E004002080B500AF024800F0EFFB00BF8A
:1013980080BD00BFC40A002080B500AF024800F03D
:1013A800E5FB00BF80BD00BF640A002080B500AF28
:1013B800024802F009F900BF80BD00BF700B002091
:1013C80080B500AF024802F0FFF800BF80BD00BF43
:1013D800240B002080B400AF064BD3F88830054AB0
:1013E80043F47003C2F8883000BFBD465DF8047B43
:1013F800704700BF00ED00E0DFF834D00D480E491B
:101408000E4A002302E0D458C4500433C4188C4256
:10141800F9D30B4A0B4C002301E013600432A242BB
:10142800FBD3FFF7D7FF02F021FFFFF7E9FC704776
:1014380000000220000000200C00002014430008D7
:101448000C000020D80B0020FEE7000080B500AF9C
:101458000E4B1B680D4A43F4007313600B4B1B685B
:101468000A4A43F480631360084B1B68074A43F435
:1014780080731360032000F083F9002000F03CF82B
:10148800FFF708FE0023184680BD00BF003C02405D
:1014980080B500AF134B4FF0FF321A62114B002298
:1014A8001A62104B4FF0FF325A620E4B00225A62FA
:1014B8000C4B4FF0FF321A610A4B00221A61094B9C
:1014C8004FF0FF325A61074B00225A61054B4FF02B
:1014D800FF329A61034B00229A6100F005F800235D
:1014E800184680BD0038024080B400AF00BFBD463A
:1014F8005DF8047B7047000080B582B000AF78606B
:10150800124B1A68124B1B7819464FF47A73B3FBC7
:10151800F1F3B2FBF3F3184600F067F90346002B2A
:1015280001D001230EE07B680F2B0AD800227968CE
:101538004FF0FF3000F02FF9064A7B681360002354
:1015480000E0012318460837BD4680BD0000002092
:10155800080000200400002080B400AF064B1B7870
:101568001A46064B1B681344044A136000BFBD4665
:101578005DF8047B704700BF08000020B40B002012
:1015880080B400AF034B1B681846BD465DF8047B6A
:10159800704700BFB40B002080B584B000AF7860FE
:1015A800FFF7EEFFB8607B68FB60FB68B3F1FF3FB5
:1015B80005D00A4B1B781A46FB681344FB6000BF32
:1015C800FFF7DEFF0246BB68D31AFA689A42F7D8DB
:1015D80000BF00BF1037BD4680BD00BF0800002017
:1015E80080B485B000AF78607B6803F00703FB60C8
:1015F8000C4BDB68BB60BA684FF6FF031340BB6057
:10160800FB681A02BB68134343F0BF6343F400331B
:10161800BB60044ABB68D36000BF1437BD465DF8A1
:10162800047B704700ED00E080B400AF044BDB683A
:101638001B0A03F007031846BD465DF8047B704794
:1016480000ED00E080B483B000AF0346FB7197F96A
:101658000730002B0BDBFB7903F01F02074997F9D2
:1016680007305B09012000FA02F241F8232000BF8D
:101678000C37BD465DF8047B704700BF00E100E011
:1016880080B483B000AF03463960FB7197F9073027
:10169800002B0ADB3B68DAB20C4997F907301201D4
:1016A800D2B20B4483F800230AE03B68DAB2084957
:1016B800FB7903F00F03043B1201D2B20B441A76F4
:1016C80000BF0C37BD465DF8047B704700E100E0C1
:1016D80000ED00E080B489B000AFF860B9607A60CE
:1016E800FB6803F00703FB61FB69C3F10703042BE5
:1016F80028BF0423BB61FB690433062B02D9FB69AD
:10170800033B00E000237B614FF0FF32BB6902FA24
:1017180003F3DA43BB681A407B699A404FF0FF3104
:101728007B6901FA03F3D9437B680B4013431846DE
:101738002437BD465DF8047B7047000080B582B051
:1017480000AF78607B68013BB3F1807F01D3012350
:101758000FE00A4A7B68013B53600F214FF0FF30CE
:10176800FFF78EFF054B00229A60044B07221A6090
:10177800002318460837BD4680BD00BF10E000E0D2
:1017880080B582B000AF78607868FFF729FF00BFA6
:101798000837BD4680BD80B586B000AF0346B96046
:1017A8007A60FB7300237B61FFF73EFF78617A68FC
:1017B800B9687869FFF78EFF024697F90F3011462E
:1017C8001846FFF75DFF00BF1837BD4680BD80B5DE
:1017D80082B000AF0346FB7197F907301846FFF750
:1017E80031FF00BF0837BD4680BD80B582B000AF6D
:1017F80078607868FFF7A2FF034618460837BD46A9
:1018080080BD80B582B000AF78607B68002B01D1C5
:1018180001230EE07B685B79DBB2002B05D17B6886
:1018280000221A717868FFF75DFC7B6801225A7103
:10183800002318460837BD4680BD000080B586B035
:1018480000AF786000237B61FFF79AFE38617B6800
:10185800002B01D1012399E07B68002283F8342012
:101868007B68022283F835207B681B681A687B68CE
:101878001B6822F001021A600FE0FFF781FE0246A2
:101888003B69D31A052B08D97B6820225A657B68E7
:10189800032283F83520032378E07B681B681B68E4
:1018A80003F00103002BE8D17B681B681B687B6190
:1018B8007A69384B13407B617B685A687B689B6800
:1018C8001A437B68DB681A437B681B691A437B6889
:1018D8005B691A437B689B691A437B68DB691A4317
:1018E8007B681B6A13437A6913437B617B685B6A75
:1018F800042B07D17B68DA6A7B681B6B13437A6910
:1019080013437B617B681B687A691A607B681B6874
:101918005B697B617B6923F007037B617B685B6A9A
:101928007A6913437B617B685B6A042B17D17B68F8
:101938009B6A7A6913437B617B68DB6A002B0ED054
:10194800786800F001FB0346002B08D07B68402232
:101958005A657B68012283F83520012316E07B68ED
:101968001B687A695A61786800F0B8FA0346FB6028
:101978007B68DB6D3F229A40FB689A607B68002297
:101988005A657B68012283F83520002318461837EA
:10199800BD4680BD3F8010F080B586B000AFF860CE
:1019A800B9607A603B600023FB75FB689B6D3B6107
:1019B800FB6893F83430012B01D1022340E0FB6827
:1019C800012283F83420FB6893F83530DBB2012B11
:1019D8002FD1FB68022283F83520FB6800225A6564
:1019E8003B687A68B968F86800F04AFAFB68DB6D0A
:1019F8003F229A403B699A60FB681B681A68FB683B
:101A08001B6842F016021A60FB681B6C002B07D09B
:101A1800FB681B681A68FB681B6842F008021A60BA
:101A2800FB681B681A68FB681B6842F001021A60B1
:101A380005E0FB68002283F834200223FB75FB7D58
:101A480018461837BD4680BD80B584B000AF7860B1
:101A58007B689B6DFB60FFF793FDB8607B6893F82C
:101A68003530DBB2022B08D07B6880225A657B6850
:101A7800002283F83420012352E07B681B681A682F
:101A88007B681B6822F016021A607B681B685A691B
:101A98007B681B6822F080025A617B681B6C002BF4
:101AA80003D17B689B6C002B07D07B681B681A6886
:101AB8007B681B6822F008021A607B681B681A683A
:101AC8007B681B6822F001021A6013E0FFF758FDDB
:101AD8000246BB68D31A052B0CD97B6820225A65AD
:101AE8007B68002283F834207B68032283F8352042
:101AF800032315E07B681B681B6803F00103002BB8
:101B0800E4D17B68DB6D3F229A40FB689A607B6872
:101B1800002283F834207B68012283F835200023D3
:101B280018461037BD4680BD80B483B000AF7860DA
:101B38007B6893F83530DBB2022B04D07B688022B7
:101B48005A6501230CE07B68052283F835207B6801
:101B58001B681A687B681B6822F001021A60002360
:101B680018460C37BD465DF8047B704780B586B0D3
:101B780000AF78600023BB60924B1B68924AA2FBBF
:101B880003239B0A7B617B689B6D3B613B691B68F8
:101B9800FB607B68DB6D08229A40FB681340002BD2
:101BA8001AD07B681B681B6803F00403002B13D052
:101BB8007B681B681A687B681B6822F004021A603D
:101BC8007B68DB6D08229A403B699A607B685B6D95
:101BD80043F001027B685A657B68DB6D01229A40FD
:101BE800FB681340002B12D07B681B685B6903F00D
:101BF8008003002B0BD07B68DB6D01229A403B6988
:101C08009A607B685B6D43F002027B685A657B686B
:101C1800DB6D04229A40FB681340002B12D07B68CE
:101C28001B681B6803F00203002B0BD07B68DB6D7D
:101C380004229A403B699A607B685B6D43F004021A
:101C48007B685A657B68DB6D10229A40FB681340FD
:101C5800002B43D07B681B681B6803F00803002B2C
:101C68003CD07B68DB6D10229A403B699A607B68A8
:101C78001B681B6803F48023002B18D07B681B6843
:101C88001B6803F40023002B08D17B681B6C002B16
:101C980024D07B681B6C786898471FE07B689B6C36
:101CA800002B1BD07B689B6C7868984716E07B6894
:101CB8001B681B6803F48073002B07D17B681B68C3
:101CC8001A687B681B6822F008021A607B681B6C24
:101CD800002B03D07B681B6C786898477B68DB6DAA
:101CE80020229A40FB681340002B00F08E807B680E
:101CF8001B681B6803F01003002B00F086807B68CC
:101D0800DB6D20229A403B699A607B6893F83530F6
:101D1800DBB2052B36D17B681B681A687B681B68A9
:101D280022F016021A607B681B685A697B681B6878
:101D380022F080025A617B681B6C002B03D17B6800
:101D48009B6C002B07D07B681B681A687B681B6834
:101D580022F008021A607B68DB6D3F229A403B69DB
:101D68009A607B68002283F834207B68012283F81C
:101D780035207B681B6D002B7DD07B681B6D7868D8
:101D8800984778E07B681B681B6803F48023002B66
:101D98001CD07B681B681B6803F40023002B08D148
:101DA8007B685B6C002B30D07B685B6C78689847ED
:101DB8002BE07B68DB6B002B27D07B68DB6B7868BC
:101DC800984722E000000020B5814E1B7B681B6805
:101DD8001B6803F48073002B0FD17B681B681A689B
:101DE8007B681B6822F010021A607B68002283F867
:101DF80034207B68012283F835207B68DB6B002B5D
:101E080003D07B68DB6B786898477B685B6D002B39
:101E180032D07B685B6D03F00103002B22D07B6816
:101E2800052283F835207B681B681A687B681B6865
:101E380022F001021A60BB680133BB607A699A42DA
:101E480007D37B681B681B6803F00103002BF2D1E2
:101E580000E000BF7B68002283F834207B68012201
:101E680083F835207B68DB6C002B05D07B68DB6C46
:101E78007868984700E000BF1837BD4680BD00BFAE
:101E880080B485B000AFF860B9607A603B60FB68E9
:101E98001B681A68FB681B6822F480221A60FB68BA
:101EA8001B683A685A60FB689B68402B08D1FB683E
:101EB8001B687A689A60FB681B68BA68DA6007E092
:101EC800FB681B68BA689A60FB681B687A68DA6006
:101ED80000BF1437BD465DF8047B704780B485B0F9
:101EE80000AF78607B681B68DBB2103B144AA2FB2A
:101EF80003231B09FB60134AFB6813441B781A462B
:101F08007B68DA65FB68032B09D97B681B6823F4B7
:101F18007F7323F003031A1D7B689A6507E07B68CB
:101F28001B6823F47F7323F003037A6893657B6847
:101F38009B6D18461437BD465DF8047B704700BF9B
:101F4800ABAAAAAAFC42000880B485B000AF7860AA
:101F58000023FB737B689B6ABB607B689B69002BD3
:101F68001FD1BB68032B56D801A252F823F000BF3B
:101F7800891F00089B1F0008891F00081F200008F0
:101F88007B68DB6A03F08073002B46D00123FB7368
:101F980043E07B68DB6AB3F1C07F40D10123FB7368
:101FA8003DE07B689B69B3F5005F21D1BB68032BDB
:101FB80037D801A252F823F0D11F0008D71F000814
:101FC800D11F0008E91F00080123FB7330E07B687C
:101FD800DB6A03F08073002B25D00123FB7322E01A
:101FE8007B68DB6AB3F1C07F1FD10123FB731CE060
:101FF800BB68022B03D9BB68032B03D018E001236D
:10200800FB7315E07B68DB6A03F08073002B0ED04E
:102018000123FB730BE000BF0AE000BF08E000BF2C
:1020280006E000BF04E000BF02E000BF00E000BF20
:10203800FB7B18461437BD465DF8047B704700BF2C
:1020480080B586B000AFF860B960C7E90023012306
:10205800FB75234B1B7E012B01D102233BE0204B58
:1020680001221A764CF2503000F070F80346FB75E6
:10207800FB7D002B2BD1FB68002B05D13B78194643
:10208800B86800F01BF916E0FB68012B05D13B8806
:102098001946B86800F0EEF80DE0FB68022B05D190
:1020A8003B681946B86800F0C3F804E0D7E9002394
:1020B800B86800F08BF84CF2503000F047F803464F
:1020C800FB75084B1B69074A23F001031361044B96
:1020D80000221A76FB7D18461837BD4680BD00BF22
:1020E800B80B0020003C024080B483B000AF00234E
:1020F800FB710B4B1B69002B0BDA094B094A5A6021
:10210800074B094A5A60064B1B69002B01DA012369
:10211800FB71FB7918460C37BD465DF8047B7047A8
:10212800003C024023016745AB89EFCD80B400AF86
:10213800054B1B69044A43F000431361002318460A
:10214800BD465DF8047B7047003C024080B584B012
:1021580000AF78600023FB601A4B0022DA61FFF7BA
:102168000FFAF86010E07B68B3F1FF3F0CD07B6892
:10217800002B07D0FFF704FA0246FB68D31A7A68E7
:102188009A4201D2032319E00F4BDB6803F4803332
:10219800002BE8D10C4BDB6803F00103002B02D0C5
:1021A800094B0122DA60084BDB6803F0F203002BCD
:1021B80003D000F0A5F8012300E0002318461037EB
:1021C800BD4680BDB80B0020003C024080B485B0FD
:1021D80000AFF860C7E90023144B1B69134A23F4C6
:1021E80040731361114B1B69104A43F44073136128
:1021F8000E4B1B690D4A43F001031361FB683A68F3
:102208001A60BFF36F8F00BFD7E900014FF00002DB
:102218004FF000030A000023F968043113460B60ED
:1022280000BF1437BD465DF8047B7047003C024090
:1022380080B483B000AF786039600D4B1B690C4ADD
:1022480023F4407313610A4B1B69094A43F4007372
:102258001361074B1B69064A43F0010313617B684E
:102268003A681A6000BF0C37BD465DF8047B7047BA
:10227800003C024080B483B000AF78600B467B809E
:102288000D4B1B690C4A23F4407313610A4B1B69FD
:10229800094A43F480731361074B1B69064A43F0EC
:1022A800010313617B687A881A8000BF0C37BD462A
:1022B8005DF8047B704700BF003C024080B483B0E7
:1022C80000AF78600B46FB700C4B1B690B4A23F47C
:1022D80040731361094B094A1B691361074B1B695A
:1022E800064A43F0010313617B68FA781A7000BF4D
:1022F8000C37BD465DF8047B704700BF003C0240C8
:1023080080B400AF274BDB6803F01003002B08D024
:10231800254BDB6943F01003234AD361214B10227C
:10232800DA60204BDB6803F02003002B08D01E4B3B
:10233800DB6943F008031C4AD3611A4B2022DA6098
:10234800184BDB6803F04003002B08D0164BDB6901
:1023580043F00403144AD361124B4022DA60114B54
:10236800DB6803F08003002B08D00F4BDB6943F0D8
:1023780002030D4AD3610B4B8022DA60094BDB68FC
:1023880003F00203002B08D0074BDB6943F020035E
:10239800054AD361034B0222DA6000BFBD465DF8EF
:1023A800047B7047003C0240B80B002080B584B025
:1023B80000AF786039600123FB730023BB60314BA9
:1023C8001B7E012B01D1022358E02E4B01221A76E5
:1023D8004CF25030FFF7BAFE0346FB73FB7B002B31
:1023E80048D13B684FF0FF321A607B681B68012BAD
:1023F80015D17B681B69DAB27B685B6819461046A1
:1024080000F044F84CF25030FFF7A0FE0346FB738F
:102418001D4B1B691C4A23F00403136128E07B68E9
:102428009B68BB601CE07B681B69DBB21946B86817
:1024380000F050F84CF25030FFF788FE0346FB736B
:10244800114B1B69104A23F0FA031361FB7B002B25
:1024580003D03B68BA681A600AE0BB680133BB6006
:102468007B68DA687B689B681344BA689A42DAD357
:1024780000F078F8034B00221A76FB7B18461037D9
:10248800BD4680BDB80B0020003C024080B483B03C
:1024980000AF03463960FB710D4B1B690C4A23F4EE
:1024A800407313610A4B1B69094A43F00403136123
:1024B800074B1A69FB791B021343054A43F480331F
:1024C800136100BF0C37BD465DF8047B704700BF41
:1024D800003C024080B485B000AF78600B46FB70CA
:1024E8000023FB60FB78002B02D10023FB6010E087
:1024F800FB78012B03D14FF48073FB6009E0FB7874
:10250800022B03D14FF40073FB6002E04FF44073D9
:10251800FB60134B1B69124A23F440731361104B81
:102528001A690F49FB6813430B610D4B1B690C4A71
:1025380023F0F80313610A4B1A697B68DB00134325
:10254800074A43F002031361054B1B69044A43F42D
:102558008033136100BF1437BD465DF8047B7047B4
:10256800003C024080B400AF204B1B6803F40073AA
:10257800002B17D01D4B1B681C4A23F400731360F3
:102588001A4B1B68194A43F400631360174B1B6806
:10259800164A23F400631360144B1B68134A43F470
:1025A80000731360114B1B6803F48063002B17D072
:1025B8000E4B1B680D4A23F4806313600B4B1B689A
:1025C8000A4A43F480531360084B1B68074A23F4F4
:1025D80080531360054B1B68044A43F480631360FF
:1025E80000BFBD465DF8047B704700BF003C024059
:1025F80080B489B000AF7860396000237B61002324
:102608003B610023BB610023FB616BE10122FB6995
:1026180002FA03F37B613B681B687A6913403B61EC
:102628003A697B699A4240F05A813B685B6803F0DB
:102638000303012B05D03B685B6803F00303022BFF
:1026480030D17B689B68BB61FB695B00032202FA9F
:1026580003F3DB43BA691340BB613B68DA68FB6983
:102668005B0002FA03F3BA691343BB617B68BA697A
:102678009A607B685B68BB610122FB6902FA03F31D
:10268800DB43BA691340BB613B685B681B0903F015
:102698000102FB6902FA03F3BA691343BB617B6861
:1026A800BA695A603B685B6803F00303032B17D0D1
:1026B8007B68DB68BB61FB695B00032202FA03F3FA
:1026C800DB43BA691340BB613B689A68FB695B00EE
:1026D80002FA03F3BA691343BB617B68BA69DA602B
:1026E8003B685B6803F00303022B23D1FB69DA081C
:1026F8007B68083253F82230BB61FB6903F007039B
:102708009B000F2202FA03F3DB43BA691340BB6153
:102718003B681A69FB6903F007039B0002FA03F39D
:10272800BA691343BB61FB69DA087B680832B96987
:1027380043F822107B681B68BB61FB695B000322BE
:1027480002FA03F3DB43BA691340BB613B685B6879
:1027580003F00302FB695B0002FA03F3BA6913434F
:10276800BB617B68BA691A603B685B6803F0805399
:10277800002B00F0B4800023FB60604B5B6C5F4A69
:1027880043F4804353645D4B5B6C03F48043FB600C
:10279800FB685B4AFB699B08023352F82330BB6134
:1027A800FB6903F003039B000F2202FA03F3DB43E8
:1027B800BA691340BB617B68524A93422BD07B684D
:1027C800514A934225D07B68504A93421FD07B6878
:1027D8004F4A934219D07B684E4A934213D07B6884
:1027E8004D4A93420DD07B684C4A934207D07B6890
:1027F8004B4A934201D107230EE008230CE006233D
:102808000AE0052308E0042306E0032304E002238A
:1028180002E0012300E00023FA6902F003029200BB
:102828009340BA691343BB613549FB699B0802337E
:10283800BA6941F823203B4B1B68BB613B69DB430A
:10284800BA691340BB613B685B6803F48033002BB3
:1028580003D0BA693B691343BB61324ABB69136051
:10286800304B5B68BB613B69DB43BA691340BB61B2
:102878003B685B6803F40033002B03D0BA693B69FB
:102888001343BB61274ABB695360264B9B68BB61F6
:102898003B69DB43BA691340BB613B685B6803F47F
:1028A8008013002B03D0BA693B691343BB611D4AEF
:1028B800BB6993601B4BDB68BB613B69DB43BA694F
:1028C8001340BB613B685B6803F40013002B03D023
:1028D800BA693B691343BB61124ABB69D360FB69A0
:1028E8000133FB61FB690F2B7FF690AE00BF00BF81
:1028F8002437BD465DF8047B704700BF00380240AE
:102908000038014000000240000402400008024074
:10291800000C02400010024000140240001802405F
:10292800001C0240003C014080B586B000AF7860D2
:102938007B68002B01D1012364E27B681B6803F0EC
:102948000103002B75D0A34B9B6803F00C03042BE9
:102958000CD0A04B9B6803F00C03082B12D19D4BA5
:102968005B6803F48003B3F5800F0BD1994B1B68A8
:1029780003F40033002B5BD07B685B68002B57D1D6
:1029880001233FE27B685B68B3F5803F06D1914B3A
:102998001B68904A43F4803313601DE07B685B68D2
:1029A800B3F5A02F0CD18B4B1B688A4A43F48023C4
:1029B8001360884B1B68874A43F4803313600BE02D
:1029C800844B1B68834A23F480331360814B1B6854
:1029D800804A23F4802313607B685B68002B13D044
:1029E800FEF7CEFD386108E0FEF7CAFD02463B69F6
:1029F800D31A642B01D9032304E2764B1B6803F432
:102A08000033002BF0D014E0FEF7BAFD386108E07F
:102A1800FEF7B6FD02463B69D31A642B01D903239E
:102A2800F0E16C4B1B6803F40033002BF0D100E09D
:102A380000BF7B681B6803F00203002B63D0654B63
:102A48009B6803F00C03002B0BD0624B9B6803F0D0
:102A58000C03082B1CD15F4B5B6803F48003002B2D
:102A680016D15C4B1B6803F00203002B05D07B6872
:102A7800DB68012B01D00123C4E1564B1B6823F00E
:102A8800F8027B681B69DB00524913430B603AE08C
:102A98007B68DB68002B20D04F4B01221A60FEF7C1
:102AA8006FFD386108E0FEF76BFD02463B69D31AFB
:102AB800022B01D90323A5E1464B1B6803F002034F
:102AC800002BF0D0434B1B6823F0F8027B681B698E
:102AD800DB00404913430B6015E03F4B00221A60AE
:102AE800FEF74EFD386108E0FEF74AFD02463B69F5
:102AF800D31A022B01D9032384E1364B1B6803F058
:102B08000203002BF0D17B681B6803F00803002B3D
:102B180030D07B685B69002B16D0304B01221A60DD
:102B2800FEF72EFD386108E0FEF72AFD02463B69F4
:102B3800D31A022B01D9032364E1264B5B6F03F000
:102B48000203002BF0D015E0244B00221A60FEF798
:102B580017FD386108E0FEF713FD02463B69D31AFA
:102B6800022B01D903234DE11A4B5B6F03F00203DB
:102B7800002BF0D17B681B6803F00403002B00F0E6
:102B8800A0800023FB75134B1B6C03F08053002BB4
:102B98000FD10023BB600F4B1B6C0E4A43F08053D0
:102BA80013640C4B1B6C03F08053BB60BB680123A0
:102BB800FB750B4B1B6803F48073002B21D1084B6A
:102BC8001B68074A43F480731360FEF7D9FC386129
:102BD80011E000BF0038024000004742800E474223
:102BE80000700040FEF7CCFC02463B69D31A022B6A
:102BF80001D9032306E1854B1B6803F48073002B7E
:102C0800F0D07B689B68012B06D1814B1B6F804AF3
:102C180043F0010313671CE07B689B68052B0CD10C
:102C28007B4B1B6F7A4A43F004031367784B1B6F87
:102C3800774A43F0010313670BE0754B1B6F744A27
:102C480023F001031367724B1B6F714A23F00403CF
:102C580013677B689B68002B15D0FEF791FC3861E1
:102C68000AE0FEF78DFC02463B69D31A41F288322E
:102C7800934201D90323C5E0654B1B6F03F00203A0
:102C8800002BEED014E0FEF77BFC38610AE0FEF77B
:102C980077FC02463B69D31A41F28832934201D944
:102CA8000323AFE05A4B1B6F03F00203002BEED156
:102CB800FB7D012B05D1564B1B6C554A23F08053E5
:102CC80013647B689B69002B00F09B80504B9B68CA
:102CD80003F00C03082B5CD07B689B69022B41D165
:102CE8004C4B00221A60FEF74BFC386108E0FEF7F7
:102CF80047FC02463B69D31A022B01D9032381E022
:102D0800434B1B6803F00073002BF0D17B68DA6932
:102D18007B681B6A1A437B685B6A9B011A437B6862
:102D28009B6A5B08013B1B041A437B68DB6A1B0632
:102D3800374913434B60374B01221A60FEF720FCDA
:102D4800386108E0FEF71CFC02463B69D31A022BE7
:102D580001D9032356E02E4B1B6803F00073002BA8
:102D6800F0D04EE02B4B00221A60FEF709FC3861C8
:102D780008E0FEF705FC02463B69D31A022B01D98D
:102D880003233FE0224B1B6803F00073002BF0D1B4
:102D980037E07B689B69012B01D1012332E01C4B92
:102DA8005B68FB607B689B69012B28D0FB6803F498
:102DB80080027B68DB699A4221D1FB6803F03F02FD
:102DC8007B681B6A9A421AD1FA6847F6C0731340A7
:102DD8007A68526A9201934211D1FB6803F4403237
:102DE8007B689B6A5B08013B1B049A4207D1FB681E
:102DF80003F070627B68DB6A1B069A4201D00123EC
:102E080000E0002318461837BD4680BD007000401A
:102E1800003802406000474280B584B000AF786057
:102E280039607B68002B01D10123CCE0684B1B681B
:102E380003F007033A689A420CD9654B3A68D2B254
:102E48001A70634B1B6803F007033A689A4201D073
:102E58000123B8E07B681B6803F00203002B20D035
:102E68007B681B6803F00403002B05D0594B9B6853
:102E7800584A43F4E05393607B681B6803F00803E7
:102E8800002B05D0534B9B68524A43F46043936030
:102E9800504B9B6823F0F0027B689B684D491343B5
:102EA8008B607B681B6803F00103002B44D07B68B0
:102EB8005B68012B07D1474B1B6803F40033002BD9
:102EC80019D101237FE07B685B68022B03D07B6804
:102ED8005B68032B07D13F4B1B6803F00073002B83
:102EE80009D101236FE03B4B1B6803F00203002B61
:102EF80001D1012367E0374B9B6823F003027B680D
:102F08005B68344913438B60FEF73AFBF8600AE0CC
:102F1800FEF736FB0246FB68D31A41F28832934229
:102F280001D903234FE02B4B9B6803F00C027B680D
:102F38005B689B009A42EBD1254B1B6803F00703A3
:102F48003A689A420CD2224B3A68D2B21A70204B95
:102F58001B6803F007033A689A4201D0012332E064
:102F68007B681B6803F00403002B08D0194B9B688F
:102F780023F4E0527B68DB68164913438B607B6857
:102F88001B6803F00803002B09D0124B9B6823F43D
:102F980060427B681B69DB000E4913438B6000F0BD
:102FA80021F802460B4B9B681B0903F00F030A49E3
:102FB800CB5C22FA03F3094A1360094B1B681846D5
:102FC800FEF79AFA002318461037BD4680BD00BFA9
:102FD800003C024000380240E442000800000020A3
:102FE800040000202DE9B04384B000AF00237B60CB
:102FF8000023FB6000233B600023BB60674B9B689A
:1030080003F00C03082B0DD0082B00F2BD80002B19
:1030180002D0042B03D0B7E0614BBB60B7E0604B34
:10302800BB60B4E05D4B5B6803F03F037B605B4BC8
:103038005B6803F48003002B4DD0584B5B689B09F9
:103048001A464FF0000340F2FF104FF0000102EA69
:10305800000803EA0109404649464FF000024FF0D4
:1030680000034B0143EAD063420110461946B0EB16
:10307800080061EB09014FF000024FF000038B01DB
:1030880043EA90638201121A63EB01034FF00000D8
:103098004FF00001D90041EA5271D00002460B46B8
:1030A80012EB080243EB09034FF000004FF0000158
:1030B800990241EA9251900202460B46104619467F
:1030C8007B681A464FF00003FDF77AF802460B4674
:1030D8001346FB604AE0314B5B689B091A464FF088
:1030E800000340F2FF104FF0000102EA000403EA77
:1030F8000105204629464FF000024FF000034B011E
:1031080043EAD063420110461946001B61EB0501F2
:103118004FF000024FF000038B0143EA90638201F5
:10312800121A63EB01034FF000004FF00001D900C1
:1031380041EA5271D00002460B46121945EB0303CF
:103148004FF000004FF00001990241EA92519002BD
:1031580002460B46104619467B681A464FF0000394
:10316800FDF72EF802460B461346FB600B4B5B68D7
:103178001B0C03F0030301335B003B60FA683B68F8
:10318800B2FBF3F3BB6002E0054BBB6000BFBB685A
:1031980018461037BD46BDE8B08300BF003802406E
:1031A8000024F40080B400AF034B1B681846BD46EA
:1031B8005DF8047B704700BF0000002080B500AFB9
:1031C800FFF7F0FF0246054B9B689B0A03F00703D5
:1031D8000349CB5C22FA03F3184680BD003802404D
:1031E800F442000880B500AFFFF7DCFF0246054B4C
:1031F8009B685B0B03F007030349CB5C22FA03F3DC
:10320800184680BD00380240F442000880B582B0FC
:1032180000AFFEF7B5F978605D4B1B685C4A43F078
:103228000103136008E0FEF7ABF902467B68D31A86
:10323800022B01D90323A7E0554B1B6803F00203B7
:10324800002BF0D0524B1B68514A43F080031360A7
:10325800FEF796F978604E4B00229A600AE0FEF776
:103268008FF902467B68D31A41F28832934201D91A
:10327800032389E0464B9B6803F00C03002BEED137
:10328800FEF77EF97860424B1B68414A23F45023CD
:10329800136008E0FEF774F902467B68D31A642BC2
:1032A80001D9032370E03A4B1B6803F40033002B69
:1032B800F0D1FEF765F97860354B1B68344A23F086
:1032C8008073136008E0FEF75BF902467B68D31A47
:1032D800022B01D9032357E02D4B1B6803F0007321
:1032E800002BF0D1FEF74CF97860294B1B68284A6F
:1032F80023F08063136008E0FEF742F902467B681A
:10330800D31A022B01D903233EE0214B1B6803F09B
:103318000063002BF0D11E4B1E4A5A601C4B1E4AFC
:10332800C3F884201A4BDB68194A23F4F853D36096
:10333800174BDB68164A23F40053D360144BDB6841
:10334800134A43F41F03D360114BDB68104A43F45C
:103358000013D3600E4B5B6F0D4A23F001035367D4
:103368000B4B5B6F0A4A43F0807353670B4B0C4A55
:103378001A600C4B1B681846FEF7BEF80346002B74
:1033880001D0012300E0002318460837BD4680BD60
:1033980000380240103000040030002000000020F7
:1033A8000024F4000400002080B582B000AF7860EB
:1033B8007B68002B01D101233FE07B6893F83D3007
:1033C800DBB2002B06D17B68002283F83C207868AA
:1033D800FDF7AAFE7B68242283F83D207B681B68E2
:1033E800DA687B681B6822F40052DA60786800F0BB
:1033F80075FD7B681B681A697B681B6822F490421C
:103408001A617B681B685A697B681B6822F02A026C
:103418005A617B681B68DA687B681B6842F4005253
:10342800DA607B6800221A647B68202283F83D20DA
:103438007B68202283F83E20002318460837BD46C3
:1034480080BD80B58AB002AFF860B9603B601346B2
:10345800FB8000237B61FB6893F83D30DBB2202BB7
:103468007CD1BB68002B02D0FB88002B01D1012343
:1034780075E0FB6893F83C30012B01D102236EE024
:10348800FB68012283F83C20FB6800221A64FB6871
:10349800212283F83D20FEF773F87861FB68FA88EB
:1034A8009A84FB68FA88DA84FB689B68B3F5805FC6
:1034B80008D1FB681B69002B04D10023FB61BB68A2
:1034C800BB6103E0BB68FB610023BB61FB680022B2
:1034D80083F83C202AE03B6800937B690022802126
:1034E800F86800F0F7FA0346002B01D0032336E012
:1034F800FB69002B0BD1BB691B881A46FB681B684C
:10350800C2F308025A60BB690233BB6107E0FB697A
:103518001A78FB681B685A60FB690133FB61FB681A
:10352800DB8C9BB2013B9AB2FB68DA84FB68DB8CCC
:103538009BB2002BCFD13B6800937B6900224021CE
:10354800F86800F0C7FA0346002B01D0032306E011
:10355800FB68202283F83D20002300E00223184660
:103568002037BD4680BD80B584B000AFF860B96033
:103578001346FB80FB6893F83E30DBB2202B1DD14D
:10358800BB68002B02D0FB88002B01D1012316E079
:10359800FB6893F83C30012B01D102230FE0FB6854
:1035A800012283F83C20FB6800221A63FB881A4634
:1035B800B968F86800F0D8FA034600E00223184614
:1035C8001037BD4680BD000080B58AB000AF786076
:1035D8007B681B681B687B627B681B68DB683B62D7
:1035E8007B681B685B69FB610023BB6100237B610F
:1035F8007B6A03F00F03BB61BB69002B0DD17B6AAB
:1036080003F02003002B08D03B6A03F02003002BB3
:1036180003D0786800F0CBFB7CE1BB69002B00F09D
:10362800B180FB6903F00103002B05D13B6A03F469
:103638009073002B00F0A6807B6A03F00103002B37
:103648000AD03B6A03F48073002B05D07B681B6C9F
:1036580043F001027B681A647B6A03F00403002BC1
:103668000AD0FB6903F00103002B05D07B681B6CB3
:1036780043F002027B681A647B6A03F00203002BA2
:103688000AD0FB6903F00103002B05D07B681B6C93
:1036980043F004027B681A647B6A03F00803002B7A
:1036A8000FD03B6A03F02003002B04D1FB6903F021
:1036B8000103002B05D07B681B6C43F008027B6874
:1036C8001A647B681B6C002B00F01F817B6A03F077
:1036D8002003002B07D03B6A03F02003002B02D005
:1036E800786800F064FB7B681B685B6903F0400343
:1036F800402B0CBF01230023DBB27B617B681B6C72
:1037080003F00803002B02D17B69002B31D07868C5
:1037180000F0A4FA7B681B685B6903F04003402B48
:1037280023D17B681B685A697B681B6822F04002BA
:103738005A617B689B6B002B13D07B689B6B774A25
:103748001A657B689B6B1846FEF7EEF90346002B5B
:1037580016D07B689B6B1B6D7A68926B10469847F6
:103768000EE0786800F0F0F80AE0786800F0ECF80D
:1037780006E0786800F0E8F87B6800221A64C4E084
:1037880000BFC2E07B681B6B012B40F0A2807B6A04
:1037980003F01003002B00F09C803B6A03F0100339
:1037A800002B00F096800023FB607B681B681B6879
:1037B800FB607B681B685B68FB60FB687B681B6859
:1037C8005B6903F04003402B4FD17B689B6B1B6800
:1037D8005B683B823B8A002B00F099807B689B8D5D
:1037E8003A8A9A4280F093807B683A8ADA857B68C5
:1037F8009B6BDB69B3F5807F2BD07B681B68DA682D
:103808007B681B6822F48072DA607B681B685A69DF
:103818007B681B6822F001025A617B681B685A6941
:103828007B681B6822F040025A617B68202283F87B
:103838003E207B6800221A637B681B68DA687B6815
:103848001B6822F01002DA607B689B6B1846FEF753
:10385800FBF87B689A8D7B68DB8D9BB2D31A9BB291
:103868001946786800F07AF851E07B689A8D7B6891
:10387800DB8D9BB2D31A7B827B68DB8D9BB2002BDE
:1038880047D07B8A002B44D07B681B68DA687B684A
:103898001B6822F49072DA607B681B685A697B683F
:1038A8001B6822F001025A617B68202283F83E20BF
:1038B8007B6800221A637B681B68DA687B681B6870
:1038C80022F01002DA607B8A1946786800F046F820
:1038D8001FE07B6A03F08003002B08D03B6A03F0EB
:1038E8008003002B03D0786800F0F9F912E07B6AB6
:1038F80003F04003002B0DD03B6A03F04003002B7C
:1039080008D0786800F03BFA04E000BF02E000BF8E
:1039180000E000BF2837BD4680BD00BFBF3C00089F
:1039280080B483B000AF786000BF0C37BD465DF847
:10393800047B704780B483B000AF786000BF0C3759
:10394800BD465DF8047B704780B483B000AF7860F3
:1039580000BF0C37BD465DF8047B704780B483B068
:1039680000AF78600B467B8000BF0C37BD465DF822
:10397800047B704780B584B000AF78607B689B6B30
:10398800FB607B681B681B6803F48073002B2AD1DB
:10399800FB680022DA85FB681B68DA68FB681B682D
:1039A80022F48072DA60FB681B685A69FB681B683E
:1039B80022F001025A61FB681B685A69FB681B68A0
:1039C80022F040025A61FB68202283F83E20FB68FF
:1039D8001B6B012B07D1FB681B68DA68FB681B6847
:1039E80022F01002DA60FB681B6B012B06D1FB6822
:1039F8009B8D1946F868FFF7B1FF02E0F868FCF7FD
:103A08005BFD00BF1037BD4680BD80B584B000AFF8
:103A180078607B689B6BFB60FB681B6B012B08D194
:103A2800FB689B8D5B089BB21946F868FFF796FF09
:103A380002E0F868FFF77EFF00BF1037BD4680BD83
:103A480080B584B000AF78600023FB607B689B6B17
:103A5800BB60BB681B685B6903F08003802B0CBFED
:103A680001230023DBB2FB60BB6893F83D30DBB277
:103A7800212B08D1FB68002B05D0BB680022DA8413
:103A8800B86800F0D5F8BB681B685B6903F04003B1
:103A9800402B0CBF01230023DBB2FB60BB6893F80B
:103AA8003E30DBB2222B08D1FB68002B05D0BB6867
:103AB8000022DA85B86800F0D1F8BB681B6C43F0C7
:103AC8001002BB681A64B868FFF73EFF00BF1037E2
:103AD800BD4680BD80B584B000AFF860B9603B607A
:103AE8001346FB712CE0BB69B3F1FF3F28D0BB69DB
:103AF800002B07D0FDF744FD02463B68D31ABA698C
:103B08009A421DD2FB681B68DA68FB681B6822F4BE
:103B1800D072DA60FB681B685A69FB681B6822F080
:103B280001025A61FB68202283F83D20FB682022AD
:103B380083F83E20FB68002283F83C2003230FE033
:103B4800FB681B681A68BB681340BA689A420CBFC6
:103B580001230023DBB21A46FB799A42C3D0002323
:103B680018461037BD4680BD80B586B000AFF860F6
:103B7800B9601346FB80BA68FB689A62FB68FA88EA
:103B88009A85FB6800221A64FB68222283F83E208B
:103B9800FB689B6B234ADA63FB689B6B224A1A64B7
:103BA800FB689B6B214ADA64FB689B6B00221A65F1
:103BB80007F108037B61FB68986BFB681B6804339B
:103BC80019467B691A68FB88FDF7E6FE00233B610E
:103BD800FB681B681B683B61FB681B685B683B6193
:103BE8003B69FB68002283F83C20FB681B68DA68A5
:103BF800FB681B6842F48072DA60FB681B685A69CC
:103C0800FB681B6842F001025A61FB681B685A692D
:103C1800FB681B6842F040025A61002318461837B7
:103C2800BD4680BD7D390008133A0008493A0008AE
:103C380080B483B000AF78607B681B68DA687B6803
:103C48001B6822F0C002DA607B68202283F83D20DE
:103C580000BF0C37BD465DF8047B704780B483B065
:103C680000AF78607B681B68DA687B681B6822F4A1
:103C78009072DA607B681B685A697B681B6822F05F
:103C880001025A617B681B6B012B07D17B681B689B
:103C9800DA687B681B6822F01002DA607B682022F1
:103CA80083F83E207B6800221A6300BF0C37BD46AC
:103CB8005DF8047B704780B584B000AF78607B689E
:103CC8009B6BFB60FB680022DA85FB680022DA84C4
:103CD800F868FFF739FE00BF1037BD4680BD80B4D5
:103CE80085B000AF78607B6893F83D30DBB2212B5C
:103CF8003ED17B689B68B3F5805F14D17B681B69F4
:103D0800002B10D17B681B6AFB60FB681B881A4676
:103D18007B681B68C2F308025A607B681B6A9A1C9E
:103D28007B681A6208E07B681B6A591C7A68116212
:103D38001A787B681B685A607B68DB8C9BB2013BF6
:103D48009BB27A681946D184002B0FD17B681B6817
:103D5800DA687B681B6822F08002DA607B681B687F
:103D6800DA687B681B6842F04002DA60002300E0F2
:103D7800022318461437BD465DF8047B704780B5AA
:103D880082B000AF78607B681B68DA687B681B6864
:103D980022F04002DA607B68202283F83D207868B0
:103DA800FFF7BEFD002318460837BD4680BD80B525
:103DB80084B000AF78607B6893F83E30DBB2222B8A
:103DC80040F087807B689B68B3F5805F17D17B687C
:103DD8001B69002B13D10023FB607B689B6ABB60C7
:103DE8007B681B685B689BB2C3F308039AB2BB6825
:103DF8001A807B689B6A9A1C7B689A6226E07B68BB
:103E08009B6AFB600023BB607B689B68B3F5805F9F
:103E180007D07B689B68002B0AD17B681B69002B45
:103E280006D17B681B685B68DAB2FB681A7008E029
:103E38007B681B685B68DBB203F07F03DAB2FB6860
:103E48001A707B689B6A5A1C7B689A627B68DB8D58
:103E58009BB2013B9BB27A681946D185002B36D1BB
:103E68007B681B68DA687B681B6822F02002DA60CE
:103E78007B681B68DA687B681B6822F48072DA60EA
:103E88007B681B685A697B681B6822F001025A61CB
:103E98007B68202283F83E207B681B6B012B0ED1A8
:103EA8007B681B68DA687B681B6822F01002DA609E
:103EB8007B689B8D19467868FFF750FD02E07868AB
:103EC800FCF7FAFA7B6800221A63002302E0002359
:103ED80000E0022318461037BD4680BD2DE9F04F9B
:103EE8009FB000AFF866FB6E1B681B6923F4405057
:103EF800FB6ED968FB6E1A6840EA01031361FB6E1A
:103F08009A68FB6E1B691A43FB6E5B691A43FB6E6A
:103F1800DB6913433B67FB6E1B68DB6823F41641C0
:103F280021F00C01FB6E1A683B6F0B43D360FB6EEC
:103F38001B685B6923F44070FB6E9969FB6E1A6815
:103F480040EA01035361FB6E1A68C54B9A4204D0DC
:103F5800FB6E1A68C34B9A4203D1FFF743F978679F
:103F680002E0FFF72BF97867FB6EDB69B3F5004FCA
:103F780040F0B6807B6F1C464FF0000522462B466A
:103F8800911839645B417B64D7E91023121945EB1A
:103F980003034FF000004FF00001D90041EA5271CD
:103FA800D00002460B46111939666B417B66FB6EE1
:103FB8005B681A464FF000039118B9635B41FB63D5
:103FC800D7E90E23D7E91801FCF7FAF802460B46A1
:103FD800A54BA3FB02235B091E017B6F1C464FF018
:103FE800000522462B46911839635B417B63D7E96C
:103FF8000C23121945EB03034FF000004FF00001AA
:10400800D90041EA5271D00002460B461119B96530
:104018006B41FB65FB6E5B681A464FF00003911815
:10402800B9625B41FB62D7E90A23D7E91601FCF7BD
:10403800C7F802460B468C4BA3FB02135B096421AD
:1040480001FB03F3D31ADB003233874AA2FB0323B5
:104058005B095B0003F4F8731E447B6F18464FF04E
:10406800000102460B4694183C625B417B62D7E92B
:104078000823121841EB03034FF000044FF000052A
:10408800DD0045EA5275D40022462B4614183C65DB
:104098004B417B65FB6E5B681A464FF00003911835
:1040A800B9615B41FB61D7E90623D7E91401FCF745
:1040B80087F802460B466C4BA3FB02135B0964218D
:1040C80001FB03F3D31ADB003233674AA2FB032355
:1040D8005B0903F00702FB6E1B6832449A60B9E083
:1040E8007B6F1C464FF0000522462B46911839611C
:1040F8005B417B61D7E90423121945EB03034FF0B9
:1041080000004FF00001D90041EA5271D000024688
:104118000B4612EB040843EB0509FB6E5B68184677
:104128004FF000014FF000024FF000038B0043EA0C
:104138009073820040464946FCF742F802460B4617
:10414800494BA3FB02235B091E017B6F18464FF006
:10415800000102460B469418BC605B41FB60D7E93E
:104168000223121841EB03034FF000044FF000053F
:10417800DD0045EA5275D40022462B461418BC646B
:104188004B41FB64FB6E5B6818464FF000014FF033
:1041980000024FF000038B0043EA90738200D7E9D6
:1041A8001201FCF70DF802460B462F4BA3FB021336
:1041B8005B09642101FB03F3D31A1B0132332A4A3A
:1041C800A2FB03235B0903F0F0031E447B6F184630
:1041D8004FF0000102460B4694183C605B417B603F
:1041E800D7E90023121841EB03034FF000044FF006
:1041F8000005DD0045EA5275D40022462B4612EB35
:10420800000A43EB010BFB6E5B6818464FF0000198
:104218004FF000024FF000038B0043EA90738200D6
:1042280050465946FBF7CCFF02460B460E4BA3FB04
:1042380002135B09642101FB03F3D31A1B01323318
:10424800094AA2FB03235B0903F00F02FB6E1B68FC
:1042580032449A6000BF7C37BD46BDE8F08F00BF8E
:1042680000100140001401401F85EB5170B50D4D41
:104278000D4C641BA4100026A64209D10B4D0C4C12
:1042880000F020F8641BA4100026A64205D170BDDA
:1042980055F8043B98470136EEE755F8043B984734
:1042A8000136F2E70C4300080C4300080C430008F1
:1042B8001043000802440346934200D1704703F8B4
:1042C800011BF9E7F8B500BFF8BC08BC9E4670476B
:0C42D800F8B500BFF8BC08BC9E4670475B
:1042E40000000000000000000102030406070809A2
:1042F4000000000001020304000610160006101658
:08430400F4BEFF7F0100000080
:04430C00AD010008F7
:044310008901000817
:0C4314000024F400100000000100000074
:0400000508001401DA
:00000001FF
